{
  "_format": "hh-sol-artifact-1",
  "contractName": "NFTContract",
  "sourceName": "contracts/NFTContract.sol",
  "abi": [
    {
      "inputs": [
        {
          "internalType": "string",
          "name": "_name",
          "type": "string"
        },
        {
          "internalType": "string",
          "name": "_symbol",
          "type": "string"
        },
        {
          "internalType": "uint256",
          "name": "_numberTokenPerTx",
          "type": "uint256"
        },
        {
          "internalType": "uint256",
          "name": "_mintFeePerToken",
          "type": "uint256"
        },
        {
          "internalType": "uint256",
          "name": "_supplyLimit",
          "type": "uint256"
        },
        {
          "internalType": "uint256",
          "name": "_numberTokenForCreator",
          "type": "uint256"
        },
        {
          "internalType": "string",
          "name": "_defaultURI",
          "type": "string"
        },
        {
          "internalType": "address",
          "name": "_VRFCoordinator",
          "type": "address"
        },
        {
          "internalType": "address",
          "name": "_LINKToken",
          "type": "address"
        },
        {
          "internalType": "bytes32",
          "name": "_keyHash",
          "type": "bytes32"
        }
      ],
      "stateMutability": "nonpayable",
      "type": "constructor"
    },
    {
      "anonymous": false,
      "inputs": [
        {
          "indexed": true,
          "internalType": "address",
          "name": "owner",
          "type": "address"
        },
        {
          "indexed": true,
          "internalType": "address",
          "name": "approved",
          "type": "address"
        },
        {
          "indexed": true,
          "internalType": "uint256",
          "name": "tokenId",
          "type": "uint256"
        }
      ],
      "name": "Approval",
      "type": "event"
    },
    {
      "anonymous": false,
      "inputs": [
        {
          "indexed": true,
          "internalType": "address",
          "name": "owner",
          "type": "address"
        },
        {
          "indexed": true,
          "internalType": "address",
          "name": "operator",
          "type": "address"
        },
        {
          "indexed": false,
          "internalType": "bool",
          "name": "approved",
          "type": "bool"
        }
      ],
      "name": "ApprovalForAll",
      "type": "event"
    },
    {
      "anonymous": false,
      "inputs": [
        {
          "indexed": true,
          "internalType": "address",
          "name": "previousOwner",
          "type": "address"
        },
        {
          "indexed": true,
          "internalType": "address",
          "name": "newOwner",
          "type": "address"
        }
      ],
      "name": "OwnershipTransferred",
      "type": "event"
    },
    {
      "anonymous": false,
      "inputs": [
        {
          "indexed": false,
          "internalType": "uint256",
          "name": "seed",
          "type": "uint256"
        }
      ],
      "name": "TokenSeed",
      "type": "event"
    },
    {
      "anonymous": false,
      "inputs": [
        {
          "indexed": true,
          "internalType": "address",
          "name": "from",
          "type": "address"
        },
        {
          "indexed": true,
          "internalType": "address",
          "name": "to",
          "type": "address"
        },
        {
          "indexed": true,
          "internalType": "uint256",
          "name": "tokenId",
          "type": "uint256"
        }
      ],
      "name": "Transfer",
      "type": "event"
    },
    {
      "inputs": [],
      "name": "LIMIT_TOKEN_PER_TX",
      "outputs": [
        {
          "internalType": "uint256",
          "name": "",
          "type": "uint256"
        }
      ],
      "stateMutability": "view",
      "type": "function"
    },
    {
      "inputs": [],
      "name": "MINT_FEE_PER_TOKEN",
      "outputs": [
        {
          "internalType": "uint256",
          "name": "",
          "type": "uint256"
        }
      ],
      "stateMutability": "view",
      "type": "function"
    },
    {
      "inputs": [],
      "name": "SUPPLY_LIMIT",
      "outputs": [
        {
          "internalType": "uint256",
          "name": "",
          "type": "uint256"
        }
      ],
      "stateMutability": "view",
      "type": "function"
    },
    {
      "inputs": [
        {
          "internalType": "address[]",
          "name": "users",
          "type": "address[]"
        }
      ],
      "name": "addGiveaways",
      "outputs": [],
      "stateMutability": "nonpayable",
      "type": "function"
    },
    {
      "inputs": [
        {
          "internalType": "address[]",
          "name": "_minter",
          "type": "address[]"
        },
        {
          "internalType": "uint256[]",
          "name": "limits",
          "type": "uint256[]"
        }
      ],
      "name": "addMinter",
      "outputs": [],
      "stateMutability": "nonpayable",
      "type": "function"
    },
    {
      "inputs": [
        {
          "internalType": "address",
          "name": "to",
          "type": "address"
        },
        {
          "internalType": "uint256",
          "name": "tokenId",
          "type": "uint256"
        }
      ],
      "name": "approve",
      "outputs": [],
      "stateMutability": "nonpayable",
      "type": "function"
    },
    {
      "inputs": [
        {
          "internalType": "address",
          "name": "owner",
          "type": "address"
        }
      ],
      "name": "balanceOf",
      "outputs": [
        {
          "internalType": "uint256",
          "name": "",
          "type": "uint256"
        }
      ],
      "stateMutability": "view",
      "type": "function"
    },
    {
      "inputs": [],
      "name": "baseURI",
      "outputs": [
        {
          "internalType": "string",
          "name": "",
          "type": "string"
        }
      ],
      "stateMutability": "view",
      "type": "function"
    },
    {
      "inputs": [
        {
          "internalType": "uint256",
          "name": "tokenId",
          "type": "uint256"
        }
      ],
      "name": "getApproved",
      "outputs": [
        {
          "internalType": "address",
          "name": "",
          "type": "address"
        }
      ],
      "stateMutability": "view",
      "type": "function"
    },
    {
      "inputs": [
        {
          "internalType": "address",
          "name": "owner",
          "type": "address"
        },
        {
          "internalType": "address",
          "name": "operator",
          "type": "address"
        }
      ],
      "name": "isApprovedForAll",
      "outputs": [
        {
          "internalType": "bool",
          "name": "",
          "type": "bool"
        }
      ],
      "stateMutability": "view",
      "type": "function"
    },
    {
      "inputs": [
        {
          "internalType": "address",
          "name": "",
          "type": "address"
        }
      ],
      "name": "mintCounts",
      "outputs": [
        {
          "internalType": "uint256",
          "name": "",
          "type": "uint256"
        }
      ],
      "stateMutability": "view",
      "type": "function"
    },
    {
      "inputs": [
        {
          "internalType": "uint256",
          "name": "numberToken",
          "type": "uint256"
        }
      ],
      "name": "mintPreSaleToken",
      "outputs": [],
      "stateMutability": "payable",
      "type": "function"
    },
    {
      "inputs": [
        {
          "internalType": "uint256",
          "name": "numberToken",
          "type": "uint256"
        }
      ],
      "name": "mintSaleToken",
      "outputs": [
        {
          "internalType": "bool",
          "name": "",
          "type": "bool"
        }
      ],
      "stateMutability": "payable",
      "type": "function"
    },
    {
      "inputs": [],
      "name": "mintTokenForCreator",
      "outputs": [],
      "stateMutability": "nonpayable",
      "type": "function"
    },
    {
      "inputs": [],
      "name": "name",
      "outputs": [
        {
          "internalType": "string",
          "name": "",
          "type": "string"
        }
      ],
      "stateMutability": "view",
      "type": "function"
    },
    {
      "inputs": [],
      "name": "owner",
      "outputs": [
        {
          "internalType": "address",
          "name": "",
          "type": "address"
        }
      ],
      "stateMutability": "view",
      "type": "function"
    },
    {
      "inputs": [
        {
          "internalType": "uint256",
          "name": "tokenId",
          "type": "uint256"
        }
      ],
      "name": "ownerOf",
      "outputs": [
        {
          "internalType": "address",
          "name": "",
          "type": "address"
        }
      ],
      "stateMutability": "view",
      "type": "function"
    },
    {
      "inputs": [
        {
          "internalType": "bytes32",
          "name": "requestId",
          "type": "bytes32"
        },
        {
          "internalType": "uint256",
          "name": "randomness",
          "type": "uint256"
        }
      ],
      "name": "rawFulfillRandomness",
      "outputs": [],
      "stateMutability": "nonpayable",
      "type": "function"
    },
    {
      "inputs": [],
      "name": "receiveGift",
      "outputs": [],
      "stateMutability": "nonpayable",
      "type": "function"
    },
    {
      "inputs": [
        {
          "internalType": "address[]",
          "name": "users",
          "type": "address[]"
        }
      ],
      "name": "removeGiveaways",
      "outputs": [],
      "stateMutability": "nonpayable",
      "type": "function"
    },
    {
      "inputs": [
        {
          "internalType": "address[]",
          "name": "_minter",
          "type": "address[]"
        },
        {
          "internalType": "uint256[]",
          "name": "limits",
          "type": "uint256[]"
        }
      ],
      "name": "removeMinter",
      "outputs": [],
      "stateMutability": "nonpayable",
      "type": "function"
    },
    {
      "inputs": [],
      "name": "renounceOwnership",
      "outputs": [],
      "stateMutability": "nonpayable",
      "type": "function"
    },
    {
      "inputs": [],
      "name": "reveal",
      "outputs": [],
      "stateMutability": "nonpayable",
      "type": "function"
    },
    {
      "inputs": [
        {
          "internalType": "address",
          "name": "from",
          "type": "address"
        },
        {
          "internalType": "address",
          "name": "to",
          "type": "address"
        },
        {
          "internalType": "uint256",
          "name": "tokenId",
          "type": "uint256"
        }
      ],
      "name": "safeTransferFrom",
      "outputs": [],
      "stateMutability": "nonpayable",
      "type": "function"
    },
    {
      "inputs": [
        {
          "internalType": "address",
          "name": "from",
          "type": "address"
        },
        {
          "internalType": "address",
          "name": "to",
          "type": "address"
        },
        {
          "internalType": "uint256",
          "name": "tokenId",
          "type": "uint256"
        },
        {
          "internalType": "bytes",
          "name": "_data",
          "type": "bytes"
        }
      ],
      "name": "safeTransferFrom",
      "outputs": [],
      "stateMutability": "nonpayable",
      "type": "function"
    },
    {
      "inputs": [],
      "name": "seed",
      "outputs": [
        {
          "internalType": "uint256",
          "name": "",
          "type": "uint256"
        }
      ],
      "stateMutability": "view",
      "type": "function"
    },
    {
      "inputs": [
        {
          "internalType": "address",
          "name": "operator",
          "type": "address"
        },
        {
          "internalType": "bool",
          "name": "approved",
          "type": "bool"
        }
      ],
      "name": "setApprovalForAll",
      "outputs": [],
      "stateMutability": "nonpayable",
      "type": "function"
    },
    {
      "inputs": [
        {
          "internalType": "string",
          "name": "_baseURI",
          "type": "string"
        }
      ],
      "name": "setBaseURI",
      "outputs": [],
      "stateMutability": "nonpayable",
      "type": "function"
    },
    {
      "inputs": [
        {
          "internalType": "string",
          "name": "_defaultURI",
          "type": "string"
        }
      ],
      "name": "setDefaultURI",
      "outputs": [],
      "stateMutability": "nonpayable",
      "type": "function"
    },
    {
      "inputs": [
        {
          "internalType": "uint256",
          "name": "_mintFeePerToken",
          "type": "uint256"
        }
      ],
      "name": "setMintFee",
      "outputs": [
        {
          "internalType": "bool",
          "name": "",
          "type": "bool"
        }
      ],
      "stateMutability": "nonpayable",
      "type": "function"
    },
    {
      "inputs": [
        {
          "internalType": "enum NFTBase.STATUS",
          "name": "_status",
          "type": "uint8"
        }
      ],
      "name": "setStatus",
      "outputs": [
        {
          "internalType": "bool",
          "name": "",
          "type": "bool"
        }
      ],
      "stateMutability": "nonpayable",
      "type": "function"
    },
    {
      "inputs": [],
      "name": "status",
      "outputs": [
        {
          "internalType": "enum NFTBase.STATUS",
          "name": "",
          "type": "uint8"
        }
      ],
      "stateMutability": "view",
      "type": "function"
    },
    {
      "inputs": [
        {
          "internalType": "bytes4",
          "name": "interfaceId",
          "type": "bytes4"
        }
      ],
      "name": "supportsInterface",
      "outputs": [
        {
          "internalType": "bool",
          "name": "",
          "type": "bool"
        }
      ],
      "stateMutability": "view",
      "type": "function"
    },
    {
      "inputs": [],
      "name": "symbol",
      "outputs": [
        {
          "internalType": "string",
          "name": "",
          "type": "string"
        }
      ],
      "stateMutability": "view",
      "type": "function"
    },
    {
      "inputs": [
        {
          "internalType": "uint256",
          "name": "index",
          "type": "uint256"
        }
      ],
      "name": "tokenByIndex",
      "outputs": [
        {
          "internalType": "uint256",
          "name": "",
          "type": "uint256"
        }
      ],
      "stateMutability": "view",
      "type": "function"
    },
    {
      "inputs": [
        {
          "internalType": "address",
          "name": "owner",
          "type": "address"
        },
        {
          "internalType": "uint256",
          "name": "index",
          "type": "uint256"
        }
      ],
      "name": "tokenOfOwnerByIndex",
      "outputs": [
        {
          "internalType": "uint256",
          "name": "",
          "type": "uint256"
        }
      ],
      "stateMutability": "view",
      "type": "function"
    },
    {
      "inputs": [
        {
          "internalType": "uint256",
          "name": "tokenId",
          "type": "uint256"
        }
      ],
      "name": "tokenURI",
      "outputs": [
        {
          "internalType": "string",
          "name": "",
          "type": "string"
        }
      ],
      "stateMutability": "view",
      "type": "function"
    },
    {
      "inputs": [],
      "name": "totalSupply",
      "outputs": [
        {
          "internalType": "uint256",
          "name": "",
          "type": "uint256"
        }
      ],
      "stateMutability": "view",
      "type": "function"
    },
    {
      "inputs": [
        {
          "internalType": "address",
          "name": "from",
          "type": "address"
        },
        {
          "internalType": "address",
          "name": "to",
          "type": "address"
        },
        {
          "internalType": "uint256",
          "name": "tokenId",
          "type": "uint256"
        }
      ],
      "name": "transferFrom",
      "outputs": [],
      "stateMutability": "nonpayable",
      "type": "function"
    },
    {
      "inputs": [
        {
          "internalType": "address",
          "name": "newOwner",
          "type": "address"
        }
      ],
      "name": "transferOwnership",
      "outputs": [],
      "stateMutability": "nonpayable",
      "type": "function"
    },
    {
      "inputs": [],
      "name": "withdraw",
      "outputs": [],
      "stateMutability": "nonpayable",
      "type": "function"
    },
    {
      "inputs": [],
      "name": "withdrawLink",
      "outputs": [],
      "stateMutability": "nonpayable",
      "type": "function"
    }
  ],
  "bytecode": "0x60c06040523480156200001157600080fd5b50604051620040143803806200401483398181016040526101408110156200003857600080fd5b81019080805160405193929190846401000000008211156200005957600080fd5b9083019060208201858111156200006f57600080fd5b82516401000000008111828201881017156200008a57600080fd5b82525081516020918201929091019080838360005b83811015620000b95781810151838201526020016200009f565b50505050905090810190601f168015620000e75780820380516001836020036101000a031916815260200191505b50604052602001805160405193929190846401000000008211156200010b57600080fd5b9083019060208201858111156200012157600080fd5b82516401000000008111828201881017156200013c57600080fd5b82525081516020918201929091019080838360005b838110156200016b57818101518382015260200162000151565b50505050905090810190601f168015620001995780820380516001836020036101000a031916815260200191505b5060408181526020830151908301516060840151608085015160a09095018051939792969195949384640100000000821115620001d557600080fd5b908301906020820185811115620001eb57600080fd5b82516401000000008111828201881017156200020657600080fd5b82525081516020918201929091019080838360005b83811015620002355781810151838201526020016200021b565b50505050905090810190601f168015620002635780820380516001836020036101000a031916815260200191505b50604090815260208201519082015160609092015190935090915082828282828e8e8c8f8f8e8585600062000297620003b8565b600080546001600160a01b0319166001600160a01b0383169081178255604051929350917f8be0079c531659141344cd1fd0a4f28419497f9722a3daafe3b4186f6b6457e0908290a350620002f36301ffc9a760e01b620003bc565b81516200030890600790602085019062000444565b5080516200031e90600890602084019062000444565b50620003316380ac58cd60e01b620003bc565b62000343635b5e139f60e01b620003bc565b6200035563780e9d6360e01b620003bc565b5050600c93909355600d55600b55600e5550506001600160601b0319606092831b811660a052911b166080526016555050671bc16d674ec800006015558351620003a790600f90602087019062000444565b5050505050505050505050620004e0565b3390565b6001600160e01b031980821614156200041c576040805162461bcd60e51b815260206004820152601c60248201527f4552433136353a20696e76616c696420696e7465726661636520696400000000604482015290519081900360640190fd5b6001600160e01b0319166000908152600160208190526040909120805460ff19169091179055565b828054600181600116156101000203166002900490600052602060002090601f016020900481019282601f106200048757805160ff1916838001178555620004b7565b82800160010185558215620004b7579182015b82811115620004b75782518255916020019190600101906200049a565b50620004c5929150620004c9565b5090565b5b80821115620004c55760008155600101620004ca565b60805160601c60a05160601c613af66200051e600039806118ad5280612e365250806116f25280611747528061272a5280612e075250613af66000f3fe6080604052600436106102515760003560e01c8063715018a611610139578063b88d4fde116100b6578063d6677da71161007a578063d6677da714610c98578063da1b9e0814610cb5578063e985e9c514610d66578063eddd0d9c14610da1578063f2fde38b14610dcb578063fe23583514610dfe57610251565b8063b88d4fde14610b56578063bb3ee79d14610c27578063bbdead3b14610c3c578063c24252b214610c59578063c87b56dd14610c6e57610251565b806394985ddd116100fd57806394985ddd1461099157806395d89b41146109c157806396aeaa61146109d6578063a22cb46514610b06578063a475b5dd14610b4157610251565b8063715018a61461080d5780637d94792a146108225780638da5cb5b146108375780638dc654a21461084c57806393c0a1c21461086157610251565b80633906f560116101d257806353e758111161019657806353e758111461058e57806355f804b31461063c5780636352211e146106ed57806368e8fd3b146107175780636c0360eb146107c557806370a08231146107da57610251565b80633906f560146104c45780633ccfd60b146104d957806342842e0e146104ee5780634f6ccce714610531578063532778791461055b57610251565b806318160ddd1161021957806318160ddd146103be578063200d2ed2146103e557806323b872dd1461041b5780632e49d78b1461045e5780632f745c591461048b57610251565b806301ffc9a71461025657806306fdde031461029e578063081812fc14610328578063095ea7b31461036e5780630b6877bf146103a9575b600080fd5b34801561026257600080fd5b5061028a6004803603602081101561027957600080fd5b50356001600160e01b031916610e13565b604080519115158252519081900360200190f35b3480156102aa57600080fd5b506102b3610e36565b6040805160208082528351818301528351919283929083019185019080838360005b838110156102ed5781810151838201526020016102d5565b50505050905090810190601f16801561031a5780820380516001836020036101000a031916815260200191505b509250505060405180910390f35b34801561033457600080fd5b506103526004803603602081101561034b57600080fd5b5035610ecc565b604080516001600160a01b039092168252519081900360200190f35b34801561037a57600080fd5b506103a76004803603604081101561039157600080fd5b506001600160a01b038135169060200135610f2e565b005b3480156103b557600080fd5b506103a7611009565b3480156103ca57600080fd5b506103d36110f9565b60408051918252519081900360200190f35b3480156103f157600080fd5b506103fa61110a565b6040518082600281111561040a57fe5b815260200191505060405180910390f35b34801561042757600080fd5b506103a76004803603606081101561043e57600080fd5b506001600160a01b03813581169160208101359091169060400135611113565b34801561046a57600080fd5b5061028a6004803603602081101561048157600080fd5b503560ff1661116a565b34801561049757600080fd5b506103d3600480360360408110156104ae57600080fd5b506001600160a01b0381351690602001356111f4565b3480156104d057600080fd5b506103d361121f565b3480156104e557600080fd5b506103a7611225565b3480156104fa57600080fd5b506103a76004803603606081101561051157600080fd5b506001600160a01b038135811691602081013590911690604001356112ba565b34801561053d57600080fd5b506103d36004803603602081101561055457600080fd5b50356112d5565b34801561056757600080fd5b506103d36004803603602081101561057e57600080fd5b50356001600160a01b03166112eb565b34801561059a57600080fd5b506103a7600480360360208110156105b157600080fd5b810190602081018135600160201b8111156105cb57600080fd5b8201836020820111156105dd57600080fd5b803590602001918460208302840111600160201b831117156105fe57600080fd5b9190808060200260200160405190810160405280939291908181526020018383602002808284376000920191909152509295506112fd945050505050565b34801561064857600080fd5b506103a76004803603602081101561065f57600080fd5b810190602081018135600160201b81111561067957600080fd5b82018360208201111561068b57600080fd5b803590602001918460018302840111600160201b831117156106ac57600080fd5b91908080601f0160208091040260200160405190810160405280939291908181526020018383808284376000920191909152509295506113b7945050505050565b3480156106f957600080fd5b506103526004803603602081101561071057600080fd5b5035611422565b34801561072357600080fd5b506103a76004803603602081101561073a57600080fd5b810190602081018135600160201b81111561075457600080fd5b82018360208201111561076657600080fd5b803590602001918460208302840111600160201b8311171561078757600080fd5b91908080602002602001604051908101604052809392919081815260200183836020028082843760009201919091525092955061144a945050505050565b3480156107d157600080fd5b506102b3611504565b3480156107e657600080fd5b506103d3600480360360208110156107fd57600080fd5b50356001600160a01b0316611565565b34801561081957600080fd5b506103a76115cd565b34801561082e57600080fd5b506103d3611679565b34801561084357600080fd5b5061035261167f565b34801561085857600080fd5b506103a761168e565b34801561086d57600080fd5b506103a76004803603604081101561088457600080fd5b810190602081018135600160201b81111561089e57600080fd5b8201836020820111156108b057600080fd5b803590602001918460208302840111600160201b831117156108d157600080fd5b9190808060200260200160405190810160405280939291908181526020018383602002808284376000920191909152509295949360208101935035915050600160201b81111561092057600080fd5b82018360208201111561093257600080fd5b803590602001918460208302840111600160201b8311171561095357600080fd5b919080806020026020016040519081016040528093929190818152602001838360200280828437600092019190915250929550611832945050505050565b34801561099d57600080fd5b506103a7600480360360408110156109b457600080fd5b50803590602001356118a2565b3480156109cd57600080fd5b506102b3611929565b3480156109e257600080fd5b506103a7600480360360408110156109f957600080fd5b810190602081018135600160201b811115610a1357600080fd5b820183602082011115610a2557600080fd5b803590602001918460208302840111600160201b83111715610a4657600080fd5b9190808060200260200160405190810160405280939291908181526020018383602002808284376000920191909152509295949360208101935035915050600160201b811115610a9557600080fd5b820183602082011115610aa757600080fd5b803590602001918460208302840111600160201b83111715610ac857600080fd5b91908080602002602001604051908101604052809392919081815260200183836020028082843760009201919091525092955061198a945050505050565b348015610b1257600080fd5b506103a760048036036040811015610b2957600080fd5b506001600160a01b0381351690602001351515611a68565b348015610b4d57600080fd5b506103a7611b6d565b348015610b6257600080fd5b506103a760048036036080811015610b7957600080fd5b6001600160a01b03823581169260208101359091169160408201359190810190608081016060820135600160201b811115610bb357600080fd5b820183602082011115610bc557600080fd5b803590602001918460018302840111600160201b83111715610be657600080fd5b91908080601f016020809104026020016040519081016040528093929190818152602001838380828437600092019190915250929550611c2f945050505050565b348015610c3357600080fd5b506103a7611c8d565b61028a60048036036020811015610c5257600080fd5b5035611cf5565b348015610c6557600080fd5b506103d3611e56565b348015610c7a57600080fd5b506102b360048036036020811015610c9157600080fd5b5035611e5c565b6103a760048036036020811015610cae57600080fd5b5035612014565b348015610cc157600080fd5b506103a760048036036020811015610cd857600080fd5b810190602081018135600160201b811115610cf257600080fd5b820183602082011115610d0457600080fd5b803590602001918460018302840111600160201b83111715610d2557600080fd5b91908080601f016020809104026020016040519081016040528093929190818152602001838380828437600092019190915250929550612166945050505050565b348015610d7257600080fd5b5061028a60048036036040811015610d8957600080fd5b506001600160a01b03813581169160200135166121db565b348015610dad57600080fd5b5061028a60048036036020811015610dc457600080fd5b5035612209565b348015610dd757600080fd5b506103a760048036036020811015610dee57600080fd5b50356001600160a01b03166122d4565b348015610e0a57600080fd5b506103d36123d6565b6001600160e01b0319811660009081526001602052604090205460ff165b919050565b60078054604080516020601f6002600019610100600188161502019095169490940493840181900481028201810190925282815260609390929091830182828015610ec25780601f10610e9757610100808354040283529160200191610ec2565b820191906000526020600020905b815481529060010190602001808311610ea557829003601f168201915b5050505050905090565b6000610ed7826123dc565b610f125760405162461bcd60e51b815260040180806020018281038252602c8152602001806139d7602c913960400191505060405180910390fd5b506000908152600560205260409020546001600160a01b031690565b6000610f3982611422565b9050806001600160a01b0316836001600160a01b03161415610f8c5760405162461bcd60e51b8152600401808060200182810382526021815260200180613a4c6021913960400191505060405180910390fd5b806001600160a01b0316610f9e6123e9565b6001600160a01b03161480610fbf5750610fbf81610fba6123e9565b6121db565b610ffa5760405162461bcd60e51b81526004018080602001828103825260388152602001806139096038913960400191505060405180910390fd5b61100483836123ed565b505050565b6110116123e9565b6001600160a01b031661102261167f565b6001600160a01b03161461106b576040805162461bcd60e51b81526020600482018190526024820152600080516020613a03833981519152604482015290519081900360640190fd5b60175460ff16156110c3576040805162461bcd60e51b815260206004820152601c60248201527f596f75206d696e74656420746f6b656e20666f722063726561746f7200000000604482015290519081900360640190fd5b6017805460ff1916600117905560005b600e548110156110f6576110ee6110e861167f565b8261245b565b6001016110d3565b50565b60006111056003612475565b905090565b60105460ff1681565b61112461111e6123e9565b82612480565b61115f5760405162461bcd60e51b8152600401808060200182810382526031815260200180613a6d6031913960400191505060405180910390fd5b611004838383612524565b60006111746123e9565b6001600160a01b031661118561167f565b6001600160a01b0316146111ce576040805162461bcd60e51b81526020600482018190526024820152600080516020613a03833981519152604482015290519081900360640190fd5b6010805483919060ff191660018360028111156111e757fe5b0217905550600192915050565b6001600160a01b03821660009081526002602052604081206112169083612670565b90505b92915050565b600c5481565b61122d6123e9565b6001600160a01b031661123e61167f565b6001600160a01b031614611287576040805162461bcd60e51b81526020600482018190526024820152600080516020613a03833981519152604482015290519081900360640190fd5b6040514790339082156108fc029083906000818181858888f193505050501580156112b6573d6000803e3d6000fd5b5050565b61100483838360405180602001604052806000815250611c2f565b6000806112e360038461267c565b509392505050565b60116020526000908152604090205481565b6113056123e9565b6001600160a01b031661131661167f565b6001600160a01b03161461135f576040805162461bcd60e51b81526020600482018190526024820152600080516020613a03833981519152604482015290519081900360640190fd5b60005b81518110156112b65760016012600084848151811061137d57fe5b6020908102919091018101516001600160a01b03168252810191909152604001600020805460ff1916911515919091179055600101611362565b6113bf6123e9565b6001600160a01b03166113d061167f565b6001600160a01b031614611419576040805162461bcd60e51b81526020600482018190526024820152600080516020613a03833981519152604482015290519081900360640190fd5b6110f681612698565b60006112198260405180606001604052806029815260200161396b60299139600391906126ab565b6114526123e9565b6001600160a01b031661146361167f565b6001600160a01b0316146114ac576040805162461bcd60e51b81526020600482018190526024820152600080516020613a03833981519152604482015290519081900360640190fd5b60005b81518110156112b6576000601260008484815181106114ca57fe5b6020908102919091018101516001600160a01b03168252810191909152604001600020805460ff19169115159190911790556001016114af565b600a8054604080516020601f6002600019610100600188161502019095169490940493840181900481028201810190925282815260609390929091830182828015610ec25780601f10610e9757610100808354040283529160200191610ec2565b60006001600160a01b0382166115ac5760405162461bcd60e51b815260040180806020018281038252602a815260200180613941602a913960400191505060405180910390fd5b6001600160a01b038216600090815260026020526040902061121990612475565b6115d56123e9565b6001600160a01b03166115e661167f565b6001600160a01b03161461162f576040805162461bcd60e51b81526020600482018190526024820152600080516020613a03833981519152604482015290519081900360640190fd5b600080546040516001600160a01b03909116907f8be0079c531659141344cd1fd0a4f28419497f9722a3daafe3b4186f6b6457e0908390a3600080546001600160a01b0319169055565b60145481565b6000546001600160a01b031690565b6116966123e9565b6001600160a01b03166116a761167f565b6001600160a01b0316146116f0576040805162461bcd60e51b81526020600482018190526024820152600080516020613a03833981519152604482015290519081900360640190fd5b7f00000000000000000000000000000000000000000000000000000000000000006001600160a01b031663a9059cbb61172761167f565b604080516370a0823160e01b815230600482015290516001600160a01b037f000000000000000000000000000000000000000000000000000000000000000016916370a08231916024808301926020929190829003018186803b15801561178d57600080fd5b505afa1580156117a1573d6000803e3d6000fd5b505050506040513d60208110156117b757600080fd5b5051604080516001600160e01b031960e086901b1681526001600160a01b03909316600484015260248301919091525160448083019260209291908290030181600087803b15801561180857600080fd5b505af115801561181c573d6000803e3d6000fd5b505050506040513d60208110156112b657600080fd5b805182511461184057600080fd5b60005b82518110156110045781818151811061185857fe5b60200260200101516011600085848151811061187057fe5b6020908102919091018101516001600160a01b0316825281019190915260400160002080549091019055600101611843565b336001600160a01b037f0000000000000000000000000000000000000000000000000000000000000000161461191f576040805162461bcd60e51b815260206004820152601f60248201527f4f6e6c7920565246436f6f7264696e61746f722063616e2066756c66696c6c00604482015290519081900360640190fd5b6112b682826126b8565b60088054604080516020601f6002600019610100600188161502019095169490940493840181900481028201810190925282815260609390929091830182828015610ec25780601f10610e9757610100808354040283529160200191610ec2565b805182511461199857600080fd5b60005b8251811015611a04578181815181106119b057fe5b6020026020010151601160008584815181106119c857fe5b60200260200101516001600160a01b03166001600160a01b031681526020019081526020016000205410156119fc57600080fd5b60010161199b565b5060005b825181101561100457818181518110611a1d57fe5b602002602001015160116000858481518110611a3557fe5b6020908102919091018101516001600160a01b031682528101919091526040016000208054919091039055600101611a08565b611a706123e9565b6001600160a01b0316826001600160a01b03161415611ad6576040805162461bcd60e51b815260206004820152601960248201527f4552433732313a20617070726f766520746f2063616c6c657200000000000000604482015290519081900360640190fd5b8060066000611ae36123e9565b6001600160a01b03908116825260208083019390935260409182016000908120918716808252919093529120805460ff191692151592909217909155611b276123e9565b6001600160a01b03167f17307eab39ab6107e8899845ad3d59bd9653f200f220920489ca2b5937696c318360405180821515815260200191505060405180910390a35050565b611b756123e9565b6001600160a01b0316611b8661167f565b6001600160a01b031614611bcf576040805162461bcd60e51b81526020600482018190526024820152600080516020613a03833981519152604482015290519081900360640190fd5b601754610100900460ff1615611c165760405162461bcd60e51b81526004018080602001828103825260288152602001806138396028913960400191505060405180910390fd5b611c1e612707565b6017805461ff001916610100179055565b611c40611c3a6123e9565b83612480565b611c7b5760405162461bcd60e51b8152600401808060200182810382526031815260200180613a6d6031913960400191505060405180910390fd5b611c87848484846127b5565b50505050565b600160105460ff166002811115611ca057fe5b14611ceb576040805162461bcd60e51b8152602060048201526016602482015275537461747573206973206e6f74207072652d73616c6560501b604482015290519081900360640190fd5b611cf3612807565b565b6000600260105460ff166002811115611d0a57fe5b14611d54576040805162461bcd60e51b8152602060048201526015602482015274537461747573206973206e6f74206f6e2073616c6560581b604482015290519081900360640190fd5b81600b54811115611da3576040805162461bcd60e51b8152602060048201526014602482015273139d5b58995c88151bdad95b881a5b9d985b1a5960621b604482015290519081900360640190fd5b600d54611db19082906128c1565b341015611df5576040805162461bcd60e51b815260206004820152600d60248201526c2830bcb6b2b73a1032b93937b960991b604482015290519081900360640190fd5b600c54611e0a611e036110f9565b839061291a565b10611e465760405162461bcd60e51b8152600401808060200182810382526023815260200180613a9e6023913960400191505060405180910390fd5b611e4f83612974565b9392505050565b600b5481565b6060611e666110f9565b8210611eac576040805162461bcd60e51b815260206004820152601060248201526f2a37b5b2b7103737ba1032bc34b9ba1760811b604482015290519081900360640190fd5b601754610100900460ff16611f4d57600f805460408051602060026001851615610100026000190190941693909304601f81018490048402820184019092528181529291830182828015611f415780601f10611f1657610100808354040283529160200191611f41565b820191906000526020600020905b815481529060010190602001808311611f2457829003601f168201915b50505050509050610e31565b611f55611504565b611f5e836129bf565b6040516020018083805190602001908083835b60208310611f905780518252601f199092019160209182019101611f71565b51815160209384036101000a600019018019909216911617905285519190930192850191508083835b60208310611fd85780518252601f199092019160209182019101611fb9565b6001836020036101000a038019825116818451168082178552505050505050905001925050506040516020818303038152906040529050919050565b600160105460ff16600281111561202757fe5b14612072576040805162461bcd60e51b8152602060048201526016602482015275537461747573206973206e6f74207072652d73616c6560501b604482015290519081900360640190fd5b80600b548111156120c1576040805162461bcd60e51b8152602060048201526014602482015273139d5b58995c88151bdad95b881a5b9d985b1a5960621b604482015290519081900360640190fd5b600d546120cf9082906128c1565b341015612113576040805162461bcd60e51b815260206004820152600d60248201526c2830bcb6b2b73a1032b93937b960991b604482015290519081900360640190fd5b600c54612121611e036110f9565b1061215d5760405162461bcd60e51b8152600401808060200182810382526023815260200180613a9e6023913960400191505060405180910390fd5b6112b682612b33565b61216e6123e9565b6001600160a01b031661217f61167f565b6001600160a01b0316146121c8576040805162461bcd60e51b81526020600482018190526024820152600080516020613a03833981519152604482015290519081900360640190fd5b80516112b690600f906020840190613783565b6001600160a01b03918216600090815260066020908152604080832093909416825291909152205460ff1690565b60006122136123e9565b6001600160a01b031661222461167f565b6001600160a01b03161461226d576040805162461bcd60e51b81526020600482018190526024820152600080516020613a03833981519152604482015290519081900360640190fd5b600060105460ff16600281111561228057fe5b146122cb576040805162461bcd60e51b8152602060048201526016602482015275537461747573206973206e6f74206f66662073616c6560501b604482015290519081900360640190fd5b50600d55600190565b6122dc6123e9565b6001600160a01b03166122ed61167f565b6001600160a01b031614612336576040805162461bcd60e51b81526020600482018190526024820152600080516020613a03833981519152604482015290519081900360640190fd5b6001600160a01b03811661237b5760405162461bcd60e51b81526004018080602001828103825260268152602001806138936026913960400191505060405180910390fd5b600080546040516001600160a01b03808516939216917f8be0079c531659141344cd1fd0a4f28419497f9722a3daafe3b4186f6b6457e091a3600080546001600160a01b0319166001600160a01b0392909216919091179055565b600d5481565b6000611219600383612bca565b3390565b600081815260056020526040902080546001600160a01b0319166001600160a01b038416908117909155819061242282611422565b6001600160a01b03167f8c5be1e5ebec7d5bd14f71427d1e84f3dd0314c0f7b2291e5b200ac8c7c3b92560405160405180910390a45050565b6112b6828260405180602001604052806000815250612bd6565b600061121982612c28565b600061248b826123dc565b6124c65760405162461bcd60e51b815260040180806020018281038252602c8152602001806138dd602c913960400191505060405180910390fd5b60006124d183611422565b9050806001600160a01b0316846001600160a01b0316148061250c5750836001600160a01b031661250184610ecc565b6001600160a01b0316145b8061251c575061251c81856121db565b949350505050565b826001600160a01b031661253782611422565b6001600160a01b03161461257c5760405162461bcd60e51b8152600401808060200182810382526029815260200180613a236029913960400191505060405180910390fd5b6001600160a01b0382166125c15760405162461bcd60e51b81526004018080602001828103825260248152602001806138b96024913960400191505060405180910390fd5b6125cc838383611004565b6125d76000826123ed565b6001600160a01b03831660009081526002602052604090206125f99082612c2c565b506001600160a01b038216600090815260026020526040902061261c9082612c38565b5061262960038284612c44565b5080826001600160a01b0316846001600160a01b03167fddf252ad1be2c89b69c2b068fc378daa952ba7f163c4a11628f55a4df523b3ef60405160405180910390a4505050565b60006112168383612c5a565b600080808061268b8686612cbe565b9097909650945050505050565b80516112b690600a906020840190613783565b600061251c848484612d39565b80156126c85760148190556126ce565b60016014555b60145460408051918252517ff8bdf5d1cc0e940f8f774dbbf0c0697df3fb08aedf9835de3c7d9c6dfaff8d8e9181900360200190a15050565b601554604080516370a0823160e01b815230600482015290516001600160a01b037f000000000000000000000000000000000000000000000000000000000000000016916370a08231916024808301926020929190829003018186803b15801561277057600080fd5b505afa158015612784573d6000803e3d6000fd5b505050506040513d602081101561279a57600080fd5b505110156127a757600080fd5b6110f6601654601554612e03565b6127c0848484612524565b6127cc84848484612fae565b611c875760405162461bcd60e51b81526004018080602001828103825260328152602001806138616032913960400191505060405180910390fd5b601260006128136123e9565b6001600160a01b0316815260208101919091526040016000205460ff16612881576040805162461bcd60e51b815260206004820152601960248201527f596f75206e6f7420696e206c6973742067697665617761797300000000000000604482015290519081900360640190fd5b60006012600061288f6123e9565b6001600160a01b031681526020810191909152604001600020805460ff19169115159190911790556110f66001612974565b6000826128d057506000611219565b828202828482816128dd57fe5b04146112165760405162461bcd60e51b81526004018080602001828103825260218152602001806139b66021913960400191505060405180910390fd5b600082820183811015611216576040805162461bcd60e51b815260206004820152601b60248201527f536166654d6174683a206164646974696f6e206f766572666c6f770000000000604482015290519081900360640190fd5b6000805b828110156129b6576000612996600e546129906110f9565b9061291a565b9050600c548110156129ad576129ad6110e86123e9565b50600101612978565b50600192915050565b6060600c548210612a0a576040805162461bcd60e51b815260206004820152601060248201526f151bdad95b881a59081a5b9d985b1a5960821b604482015290519081900360640190fd5b601454612a265750604080516020810190915260008152610e31565b6060600c5467ffffffffffffffff81118015612a4157600080fd5b50604051908082528060200260200182016040528015612a6b578160200160208202803683370190505b50905060005b600c54811015612a9b5780828281518110612a8857fe5b6020908102919091010152600101612a71565b506018545b600c54811015612b16576000612ab582613116565b9050828181518110612ac357fe5b6020026020010151838381518110612ad757fe5b6020026020010151848481518110612aeb57fe5b60200260200101858481518110612afe57fe5b60209081029190910101919091525250600101612aa0565b50611e4f818481518110612b2657fe5b6020026020010151613159565b8060116000612b406123e9565b6001600160a01b03166001600160a01b031681526020019081526020016000205411612b6b57600080fd5b612b9b8160116000612b7b6123e9565b6001600160a01b0316815260208101919091526040016000205490613234565b60116000612ba76123e9565b6001600160a01b031681526020810191909152604001600020556112b681612974565b60006112168383613291565b612be083836132a9565b612bed6000848484612fae565b6110045760405162461bcd60e51b81526004018080602001828103825260328152602001806138616032913960400191505060405180910390fd5b5490565b600061121683836133d7565b6000611216838361349d565b600061251c84846001600160a01b0385166134e7565b81546000908210612c9c5760405162461bcd60e51b81526004018080602001828103825260228152602001806138176022913960400191505060405180910390fd5b826000018281548110612cab57fe5b9060005260206000200154905092915050565b815460009081908310612d025760405162461bcd60e51b81526004018080602001828103825260228152602001806139946022913960400191505060405180910390fd5b6000846000018481548110612d1357fe5b906000526020600020906002020190508060000154816001015492509250509250929050565b60008281526001840160205260408120548281612dd45760405162461bcd60e51b81526004018080602001828103825283818151815260200191508051906020019080838360005b83811015612d99578181015183820152602001612d81565b50505050905090810190601f168015612dc65780820380516001836020036101000a031916815260200191505b509250505060405180910390fd5b50846000016001820381548110612de757fe5b9060005260206000209060020201600101549150509392505050565b60007f00000000000000000000000000000000000000000000000000000000000000006001600160a01b0316634000aea07f00000000000000000000000000000000000000000000000000000000000000008486600060405160200180838152602001828152602001925050506040516020818303038152906040526040518463ffffffff1660e01b815260040180846001600160a01b0316815260200183815260200180602001828103825283818151815260200191508051906020019080838360005b83811015612ee0578181015183820152602001612ec8565b50505050905090810190601f168015612f0d5780820380516001836020036101000a031916815260200191505b50945050505050602060405180830381600087803b158015612f2e57600080fd5b505af1158015612f42573d6000803e3d6000fd5b505050506040513d6020811015612f5857600080fd5b5050600083815260136020526040812054612f789085908390309061357e565b600085815260136020526040902054909150612f9590600161291a565b60008581526013602052604090205561251c84826135c5565b6000612fc2846001600160a01b03166135f1565b612fce5750600161251c565b60606130dc630a85bd0160e11b612fe36123e9565b88878760405160240180856001600160a01b03168152602001846001600160a01b0316815260200183815260200180602001828103825283818151815260200191508051906020019080838360005b8381101561304a578181015183820152602001613032565b50505050905090810190601f1680156130775780820380516001836020036101000a031916815260200191505b5095505050505050604051602081830303815290604052906001600160e01b0319166020820180516001600160e01b038381831617835250505050604051806060016040528060328152602001613861603291396001600160a01b03881691906135f7565b905060008180602001905160208110156130f557600080fd5b50516001600160e01b031916630a85bd0160e11b1492505050949350505050565b6014546040805160208082019390935280820184905281518082038301815260609091019091528051910120600c5460009190818161315157fe5b069392505050565b60608161317e57506040805180820190915260018152600360fc1b6020820152610e31565b8160005b811561319657600101600a82049150613182565b60608167ffffffffffffffff811180156131af57600080fd5b506040519080825280601f01601f1916602001820160405280156131da576020820181803683370190505b50859350905060001982015b831561322b57600a840660300160f81b8282806001900393508151811061320957fe5b60200101906001600160f81b031916908160001a905350600a840493506131e6565b50949350505050565b60008282111561328b576040805162461bcd60e51b815260206004820152601e60248201527f536166654d6174683a207375627472616374696f6e206f766572666c6f770000604482015290519081900360640190fd5b50900390565b60009081526001919091016020526040902054151590565b6001600160a01b038216613304576040805162461bcd60e51b815260206004820181905260248201527f4552433732313a206d696e7420746f20746865207a65726f2061646472657373604482015290519081900360640190fd5b61330d816123dc565b1561335f576040805162461bcd60e51b815260206004820152601c60248201527f4552433732313a20746f6b656e20616c7265616479206d696e74656400000000604482015290519081900360640190fd5b61336b60008383611004565b6001600160a01b038216600090815260026020526040902061338d9082612c38565b5061339a60038284612c44565b5060405181906001600160a01b038416906000907fddf252ad1be2c89b69c2b068fc378daa952ba7f163c4a11628f55a4df523b3ef908290a45050565b60008181526001830160205260408120548015613493578354600019808301919081019060009087908390811061340a57fe5b906000526020600020015490508087600001848154811061342757fe5b60009182526020808320909101929092558281526001898101909252604090209084019055865487908061345757fe5b60019003818190600052602060002001600090559055866001016000878152602001908152602001600020600090556001945050505050611219565b6000915050611219565b60006134a98383613291565b6134df57508154600181810184556000848152602080822090930184905584548482528286019093526040902091909155611219565b506000611219565b60008281526001840160205260408120548061354c575050604080518082018252838152602080820184815286546001818101895560008981528481209551600290930290950191825591519082015586548684528188019092529290912055611e4f565b8285600001600183038154811061355f57fe5b9060005260206000209060020201600101819055506000915050611e4f565b60408051602080820196909652808201949094526001600160a01b039290921660608401526080808401919091528151808403909101815260a09092019052805191012090565b604080516020808201949094528082019290925280518083038201815260609092019052805191012090565b3b151590565b606061251c84846000858561360b856135f1565b61365c576040805162461bcd60e51b815260206004820152601d60248201527f416464726573733a2063616c6c20746f206e6f6e2d636f6e7472616374000000604482015290519081900360640190fd5b60006060866001600160a01b031685876040518082805190602001908083835b6020831061369b5780518252601f19909201916020918201910161367c565b6001836020036101000a03801982511681845116808217855250505050505090500191505060006040518083038185875af1925050503d80600081146136fd576040519150601f19603f3d011682016040523d82523d6000602084013e613702565b606091505b509150915061371282828661371d565b979650505050505050565b6060831561372c575081611e4f565b82511561373c5782518084602001fd5b60405162461bcd60e51b8152602060048201818152845160248401528451859391928392604401919085019080838360008315612d99578181015183820152602001612d81565b828054600181600116156101000203166002900490600052602060002090601f016020900481019282601f106137c457805160ff19168380011785556137f1565b828001600101855582156137f1579182015b828111156137f15782518255916020019190600101906137d6565b506137fd929150613801565b5090565b5b808211156137fd576000815560010161380256fe456e756d657261626c655365743a20696e646578206f7574206f6620626f756e6473596f75206861766520616c72656164792067656e65726174656420612072616e646f6d20736565644552433732313a207472616e7366657220746f206e6f6e20455243373231526563656976657220696d706c656d656e7465724f776e61626c653a206e6577206f776e657220697320746865207a65726f20616464726573734552433732313a207472616e7366657220746f20746865207a65726f20616464726573734552433732313a206f70657261746f7220717565727920666f72206e6f6e6578697374656e7420746f6b656e4552433732313a20617070726f76652063616c6c6572206973206e6f74206f776e6572206e6f7220617070726f76656420666f7220616c6c4552433732313a2062616c616e636520717565727920666f7220746865207a65726f20616464726573734552433732313a206f776e657220717565727920666f72206e6f6e6578697374656e7420746f6b656e456e756d657261626c654d61703a20696e646578206f7574206f6620626f756e6473536166654d6174683a206d756c7469706c69636174696f6e206f766572666c6f774552433732313a20617070726f76656420717565727920666f72206e6f6e6578697374656e7420746f6b656e4f776e61626c653a2063616c6c6572206973206e6f7420746865206f776e65724552433732313a207472616e73666572206f6620746f6b656e2074686174206973206e6f74206f776e4552433732313a20617070726f76616c20746f2063757272656e74206f776e65724552433732313a207472616e736665722063616c6c6572206973206e6f74206f776e6572206e6f7220617070726f766564426f756e64206c696d6974206f66206d6178696e756d20737570706c79206c696d6974a2646970667358221220dcbe393d44249c4f4f89af7da4c3ea47c45257c7eada7084fa2705b4141c161c64736f6c634300060c0033",
  "linkReferences": {},
  "deployedLinkReferences": {}
}